:10000E0000000000000000000000000000000000E2
:10001E0000000000000000000000000000000000D2
:10002E00000000000000000000FCFEFC00000000CC
:10003E00000000000003FF030000000000000000AD
:10004E00003079300000000000001CFC1C00001C79
:10005E00FC1C00000000000000000000000000007A
:10006E000000000000000000000000000000E0E0C2
:10007E00000000F0F08080008282FFFF414141FFCE
:10008E00FF20200000001F1F0000000F0F000000C7
:10009E00C0E0301010FCFC101030E0C003070C085C
:1000AE0018FFFF303060C080070F1810107F7F10D0
:1000BE0010180F07F0F80404F8F00000C0701800D4
:1000CE0001030484E3398E4341800000301C070194
:1000DE00001F3F40403F1F0000F08804048478005A
:1000EE0000000000E0F807061D70C0800040C04010
:1000FE000F1F30202030111B0E1E3120000000007B
:10010E00003CFC3C0000000000000000000001006C
:10011E0000000000000000000000000000000000D1
:10012E00000000000080E0780C02010000000000DA
:10013E0000FFFF0000000000000000000001071E8D
:10014E00304080000001020C78E0800000000000CA
:10015E000000000000FFFF000000000000804030A3
:10016E001E070100000000008080000060F06000AB
:10017E000080800081C3C32400C30024C3C3810058
:10018E0001010000060F0600000101000000000042
:10019E0000808000000000000018181818FFFF18DB
:1001AE0018181800000000000001010000000000F7
:1001BE000000000000000000000000000000000031
:1001CE0000000000000000000000008CDE7E3C00FD
:1001DE000000000000000000000000000000000011
:1001EE000018181818181818181818000000000011
:1001FE0000000000000000000000000000000000F1
:10020E0000000000000000000000000000000000E0
:10021E00000000183C3C1800000000000000000028
:10022E00000000C0701C0600000000C0701C07011A
:10023E0000000000301C070100000000000000005C
:10024E0000C0F0380C040C38F0C00000FFFF0000B6
:10025E000000000000FFFF0000030F1C3020301CC8
:10026E000F0300000010101818FCFC000000000026
:10027E000000000000FFFF00000000000000202032
:10028E00203F3F202020000060F0F80C0404040CF6
:10029E0018F0E00000000080C06030180E0701006A
:1002AE00383E3F333030303030303C0000307878DC
:1002BE000C04040C18F8F0000000000008081C16CE
:1002CE0033E1C0000C1E3E3020202030181F0F00DE
:1002DE000000000080E038FCFC00000080E0380EDA
:1002EE00030000FFFF000000010101010121213F79
:1002FE003F21210100FCFC0C0C0C0C0C0C0C000022
:10030E00001F0F08040202061CF8E0000C1E3E300F
:10031E00202020301C0F0300C0F0380C04040C7C8D
:10032E0078300000FFFF0804020202061CF8E0000D
:10033E00030F1C30202020301C0F0300781C0C0CE7
:10034E000C0C0C0CCC7C1C000000000080F07C0F10
:10035E0001000000000000003F3F00000000000010
:10036E0000F0F80C0404040CF8F00000C0E0311B9F
:10037E000E0C0E1B31E0C000070F1830202020306D
:10038E00180F0700C0F0380C0404040C38F0C0003D
:10039E00071F38604040402010FFFF00000C1E3E3B
:1003AE00302020301C0F03000000000080C0C080F1
:1003BE00000000000000000081C3C38100000000A7
:1003CE000000000001030301000000000000000017
:1003DE0080C0C080000000000000000081C3C38107
:1003EE000000000000000000111B0F0700000000BD
:1003FE00000000000080C0603018080010386CC685
:10040E008301000000000000000000000103060C44
:10041E001830200000000000000000000000000066
:10042E0000C3C3C3C3C3C3C3C3C3C3000000000020
:10043E00000000000000000008183060C0800000BE
:10044E000000000000000000000183C66C381000A0
:10045E002030180C06030100000000000060F07848
:10046E000C0404040CF8F000000000000000F01C66
:10047E00070300000000000000307930000000008B
:10048E00E0100884C44444C48810E000FF00FFFF5D
:10049E00808080FFFF00FF0007081021212120200F
:1004AE002111080000000000F00C3CF000000000DC
:1004BE000000F0FF43404043FFF00000203E3F208D
:1004CE0000000000203F3E2004FCFC0404040C1835
:1004DE00F0E0000000FFFF0808081C1673E1800022
:1004EE00203F3F20202020301C0F0300C0F0380C8E
:1004FE000404040C18387C00FFFF0000000000000C
:10050E0000000000030F1C3020202030180E0600C3
:10051E0004FCFC0404040C1870E0800000FFFF00D3
:10052E000000000000FFFF00203F3F202020301879
:10053E000E07010004FCFC04040404040C1C7C00E3
:10054E0000FFFF0808081C7F00000000203F3F202E
:10055E002020202030383E0004FCFC040404040457
:10056E000C1C7C0000FFFF0808081C7F0000000028
:10057E00203F3F200000000000000000C0F0380CBB
:10058E0004040C08187C0000FFFF000000000008A7
:10059E00F8F80800030F1C302030180C3F3F000005
:1005AE0004FCFC0400000004FCFC040000FFFF0837
:1005BE0008080808FFFF0000203F3F200000002031
:1005CE003F3F2000000000040404FCFC040404006F
:1005DE00000000000000FFFF0000000000000020EF
:1005EE0020203F3F2020200000000000000404FCDB
:1005FE00FC04040000000000000000FFFF000000EB
:10060E000E1F37222030301F0F00000004FCFC04A8
:10061E000080E47C1C04040000FFFF781E7FE18054
:10062E0000000000203F3F20000001273E38202020
:10063E0004FCFC04000000000000000000FFFF00AE
:10064E000000000000000000203F3F20202020205E
:10065E0030383E0004FCFCC000000000C0FCFC046E
:10066E0000FFFF073CE0E03C07FFFF00203F3F207C
:10067E0000010100203F3F2004FCFCE000000004CC
:10068E00FCFC040000FFFF01071C70C0FFFF000010
:10069E00203F3F20000000030F3F0000E0F0180C49
:1006AE000404040C18F0E000FFFF0000000000003E
:1006BE0000FFFF00070F183020202030180F070012
:1006CE0004FCFC0404040C0838F0C00000FFFF100A
:1006DE00101018080E070100203F3F2000000000F8
:1006EE0000000000E0F0180C0404040C18F0E00008
:1006FE00FFFF00000000000000FFFF00070F183092
:10070E0022262C18307F4F4004FCFC0404040C18E5
:10071E00F8E0000000FFFF0838F8CC0607010000E3
:10072E00203F3F200000032F3C302000F0F8880CC3
:10073E0004040C18387C0000000103070E1C3870EE
:10074E00E0C080003F1E0C1830202030180F07002C
:10075E007C1C0C0404FCFC04040C1C7C000000003B
:10076E0000FFFF000000000000000020203F3F209F
:10077E002000000004FCFC0400000004FCFC04004B
:10078E0000FFFF0000000000FFFF0000000F1F3001
:10079E00202020301F0F000004FCFC040000000489
:1007AE00FCFC040000003FFFC000C0FF3F00000043
:1007BE00000000031F3C1F030000000004FCFC04AB
:1007CE000000000004FCFC040003FF8000FCFC00A1
:1007DE0080FF03000000033F3C03033C3F03000087
:1007EE00041C7CE480000080E47C1C04000000817A
:1007FE00E77E7EE78100000020383E2701000001E1
:10080E00273E3820041CFCE400000000E4FC1C041D
:10081E00000000071FF8F81F07000000000000206E
:10082E00203F3F20200000007C1C0C040404C4F474
:10083E003C1C00000000C0F03C0F03000000000054
:10084E003C3F23202020202030383E0000000000B6
:10085E0000FF0101010101000000000000FF000087
:10086E00000000000000000000FF808080808000FB
:10087E00061C70C000000000000000000000000117
:10088E00071C70C000000000000000000000000106
:10089E00071C3000000101010101FF0000000000F3
:1008AE00000000000000FF000000000000808080BB
:1008BE008080FF0000000000006030180C06060C5F
:1008CE001830600000000000000000000000000072
:1008DE00000000000000000000000000000000000A
:1008EE0000000000000000000000000000000000FA
:1008FE0000000000808080808080808080808080EA
:10090E00000002030706040C0808000000000000A7
:10091E0000000000000000000000000000000000C9
:10092E0000000000000000000000000000000000B9
:10093E00081C9E8AC2424246FCF800001E1F31204F
:10094E00202030101F3F200004FCFC00000000009F
:10095E000000000000FFFF0C060202061CF8E0007B
:10096E00203F1F18302020301C0F03000000000015
:10097E000000000000000000E0F81C060202021653
:10098E003C3C1800030F1C3020202020301808009B
:10099E00000000000000000004FCFC00E0F81C0653
:1009AE00020202060CFFFF00030F1C302020203035
:1009BE00181F3F00000000000000000000000000B3
:1009CE00E0F89C86828282869CF8E000030F1C3041
:1009DE002020202030180800000000F0F80C04043D
:1009EE001C3C1800020202FFFF020202000000007F
:1009FE000020203F3F2020000000000000000000EB
:100A0E000000000000000000387CC6828282C67C96
:100A1E003C0606003C7FC3828684848CCC783000F2
:100A2E0004FCFC00000000000000000000FFFF18A6
:100A3E000C060206FCF80000203F3F2000000020BC
:100A4E003F3F200000000000183C3C180000000052
:100A5E000000000202FEFE00000000000000002068
:100A6E00203F3F20200000000000000000183C3C0A
:100A7E001800000000000000000202FEFE00000050
:100A8E003078F8908080C07F3F00000004FCFC00AE
:100A9E00000000000000000000FFFFC060F0DA0E52
:100AAE0006020200203F3F200000032F3C302000B2
:100ABE000000000404FCFC00000000000000000028
:100ACE0000FFFF000000000000000020203F3F203C
:100ADE0020000000000000000000000000000000E8
:100AEE0002FEFE0406FEFC0606FEFC00203F3F2032
:100AFE00003F3F20003F3F200000000000000000AC
:100B0E000000000002FEFE180C060206FCF80000B3
:100B1E00203F3F20000000203F3F2000000000004B
:100B2E000000000000000000E0F81C0602020206B1
:100B3E001CF8E000030F1C30202020301C0F030097
:100B4E0000000000000000000000000002FEFE0C8D
:100B5E00060202061CF8E00080FFFF860C08080C57
:100B6E00070300000000000000000000000000006D
:100B7E00E0F81C060202060CFCFE00000003070C47
:100B8E0008080C86FFFF8000000000000000000037
:100B9E000000000002FEFE180C0602021E1C0800D9
:100BAE00203F3F2000000000000000000000000079
:100BBE000000000000000000387C66C2C2828286FF
:100BCE000C1C00001C18302020202121331F0E0089
:100BDE00000000E0F000000000000000020202FF32
:100BEE00FF020202020200000000000F1F30202050
:100BFE00301C0C000000000000000000000000008F
:100C0E0002FEFE0000000002FEFE0000000F1F307C
:100C1E002030180C3F3F20000000000000000000B4
:100C2E0000000000020E7EF2800080F27E0E0200B6
:100C3E00000000031F3C1F03000000000000000026
:100C4E000000000000000000023EFEC200F0F000B6
:100C5E00C2FE3E020000033F3E03033E3F03000080
:100C6E00000000000000000000000000020E1E3216
:100C7E00E0C0E0321E0E020020383C26030103269F
:100C8E003C382000000000000000000000000000C2
:100C9E0002061E7AE08080F27E0E020060E0808006
:100CAE00E17F1F03000000000000000000000000B4
:100CBE0000000000000E020282C262321A0E06000E
:100CCE00383C26232120202020303C00000000004C
:100CDE0000FCFE0301010100000000183CE7C30008
:100CEE000000000000000000003F7FC080808000F8
:100CFE000000000000FFFF000000000000000000E8
:100D0E0000FFFF00000000000000000000FFFF00D9
:100D1E00000000000001010103FEFC0000000000C5
:100D2E000000000000C3E73C180000000080808037
:100D3E00C07F3F0000000000000000000000000027
:100D4E000000000010180C040C0810302030180899
:100D5E000000000000000000000000000000000085
:100D6E00C070C00000000000C0F09C8781808187A9
:100D7E009CF0C00000000000000000000000000019
:100D8E000000000000000000000000000000000055
:100D9E00000038FCFC3800000000000D0D000000C3
:100DAE00000E1E00001E0E000000000000000000DD
:100DBE0020F8F820F8F82000020F0F020F0F0200A3
:100DCE00387C444747CC98000306041C1C070300DC
:100DDE0030300080C06030000C060301000C0C00A7
:100DEE0080D87CE4BCD84000070F0808070F080025
:100DFE0000101E0E000000000000000000000000A9
:100E0E000000F0F80C040000000003070C080000BE
:100E1E000000040CF8F000000000080C07030000AE
:100E2E0080A0E0C0C0E0A080000203010103020028
:100E3E00008080E0E08080000000000303000000DE
:100E4E0000000000000000000000101E0E00000058
:100E5E008080808080808000000000000000000004
:100E6E0000000000000000000000000C0C0000005C
:100E7E0000000080C06030000C060301000000007E
:100E8E00F8FC04C424FCF800070F0908080F07003B
:100E9E00001018FCFC0000000008080F0F080800E6
:100EAE00080C84C4643C18000E0F0908080C0C00D2
:100EBE00080C444444FCB800040C0808080F070052
:100ECE00C0E0B098FCFC8000000000080F0F080086
:100EDE007C7C4444C4C48400040C0808080F07003A
:100EEE00F0F84C4444C08000070F0808080F0700B4
:100EFE000C0C0484C47C3C0000000F0F00000000AA
:100F0E00B8FC444444FCB800070F0808080F07005B
:100F1E00387C444444FCF800000808080C07030021
:100F2E000000003030000000000000060600000047
:100F3E0000000030300000000000080E0600000027
:100F4E000080C0603018080000000103060C080085
:100F5E0040404040404040000202020202020200B5
:100F6E000008183060C0800000080C060301000065
:100F7E00181C04C4E43C18000000000D0D00000015
:100F8E00F0F808C8C8F8F000070F080B0B0B0100AB
:100F9E00E0F0988C98F0E0000F0F0000000F0F00AB
:100FAE0004FCFC4444FCB800080F0F08080F0700AF
:100FBE00F0F80C04040C180003070C08080C0600CB
:100FCE0004FCFC040CF8F000080F0F080C070300DB
:100FDE0004FCFC44E40C1C00080F0F08080C0E0067
:100FEE0004FCFC44E40C1C00080F0F080000000079
:100FFE00F0F80C84848C980003070C0808070F0087
:10100E00FCFC404040FCFC000F0F0000000F0F00E6
:10101E00000004FCFC0400000000080F0F08000094
:10102E0000000004FCFC0400070F08080F07000076
:10103E0004FCFCC0F03C0C00080F0F00010F0E006A
:10104E0004FCFC0400000000080F0F08080C0E0042
:10105E00FCFC387038FCFC000F0F0000000F0F0076
:10106E00FCFC3870E0FCFC000F0F0000000F0F00BE
:10107E00F0F80C040CF8F00003070C080C07030042
:10108E0004FCFC44447C3800080F0F0800000000EC
:10109E00F8FC040404FCF800070F080E3C3F270080
:1010AE0004FCFC44C4FC3800080F0F00000F0F00B6
:1010BE00183C6444C49C1800060E0808080F07006C
:1010CE00001C0CFCFC0C1C000000080F0F0800009C
:1010DE00FCFC000000FCFC00070F0808080F0700CE
:1010EE00FCFC000000FCFC000103060C06030100E2
:1010FE00FCFC008000FCFC00030F0E030E0F03002F
:10110E000C3CF0C0F03C0C000C0F0300030F0C0065
:10111E00003C7CC0C07C3C000000080F0F080000A3
:10112E001C0C84C4643C1C000E0F0908080C0E0035
:10113E000000FCFC0404000000000F0F0808000073
:10114E003870E0C0800000000000000103070E00B0
:10115E0000000404FCFC0000000008080F0F000053
:10116E00080C0603060C080000000000000000003A
:10117E000000000000000000202020202020202061
:10118E000000030704000000000000000000000043
:10119E0000A0A0A0E0C00000070F0808070F08007D
:1011AE0004FCFC2060C08000080F0708080F070031
:1011BE00C0E0202020604000070F0808080C040043
:1011CE0080C06024FCFC0000070F0808070F080011
:1011DE00C0E0A0A0A0E0C000070F0808080C0400A3
:1011EE0040F8FC440C180000080F0F080000000027
:1011FE00C0E02020C0E02000276F48487F3F00005D
:10120E0004FCFC4020E0C000080F0F00000F0F0090
:10121E00000020ECEC0000000000080F0F0800009A
:10122E000000000020ECEC0000307040407F3F00DA
:10123E0004FCFC80C0602000080F0F01030E0C00A0
:10124E00000004FCFC0000000000080F0F08000066
:10125E00E0E060C060E0C0000F0F000F000F0F0055
:10126E0020E0C02020E0C000000F0F00000F0F0094
:10127E00C0E0202020E0C000070F0808080F07007C
:10128E0020E0C02020E0C000407F7F48080F07000C
:10129E00C0E02020C0E02000070F08487F7F4000FC
:1012AE0020E0C0602060C000080F0F0800000000A2
:1012BE0040E0A02020604000040C09090B0E040041
:1012CE002020F8FC202000000000070F080C04006E
:1012DE00E0E00000E0E00000070F0808070F08003C
:1012EE0000E0E00000E0E0000003070C0C07030044
:1012FE00E0E0000000E0E000070F0C070C0F070015
:10130E002060C080C0602000080C0703070C080096
:10131E00E0E0000000E0E000474F4848683F1F0053
:10132E00606020A0E06020000C0E0B09080C0C0081
:10133E00004040F8BC040400000000070F0808003D
:10134E00000000BCBC0000000000000F0F000000F9
:10135E00000404BCF84040000008080F070000001D
:10136E00080C040C080C0400000000000000000033
:10137E0080C0603060C080000707040404070700C7
:10138E00000000000000005F0000000700070014CE
:10139E007F147F14242E7B2A12231308646236498D
:1013AE005620500004030100001C2241000041227F
:1013BE001C0022147F142208087F080840301000F9
:1013CE0000080808080800606000002010080402E9
:1013DE003E5149453E00427F4000625149494621F7
:1013EE0041494D331814127F1027454545393C4A63
:1013FE00494931017109050336494949364649497A
:10140E00291E0036360000403636000008142241F0
:10141E000014141414140041221408020159050278
:10142E003E415D555E7C1211127C7F494949363E24
:10143E00414141227F4141413E7F494949417F0916
:10144E000909013E415151727F0808087F00417F12
:10145E0041002040413F017F081422417F4040401F
:10146E00407F020C027F7F0408107F3E4141413EC7
:10147E007F090909063E4151215E7F091929462639
:10148E004949493201017F01013F4040403F1F2041
:10149E0040201F7F2018207F6314081463030478F4
:1014AE00040361514945437F7F4141000204081006
:1014BE00200041417F7F04027F0204081C2A080895
:1014CE00000001020424545438407F284444383824
:1014DE0044444408384444287F3854545408087E01
:1014EE0009090298A4A4A4787F080404780000795E
:1014FE00000000808879007F1028444000417F4022
:10150E000078047804780478040478384444443825
:10151E00FC2424241818242424FC047804040848E9
:10152E0054545424043F4444243C40403C401C202A
:10153E0040201C3C403C403C44281028449CA0A029
:10154E00907C4464544C44083641000000007700FF
:10155E000000004136080804081008552A552A557F
:10156E007F3E1C080800E0E0C2868EFEFEFCF8807E
:10157E0000000000000000010303030303070F1F18
:10158E003F7E7C7800000000000080C0E0F0F8FC98
:10159E00FE0000000000000000000103070F1F3FC7
:1015AE007F0000000000000000FEFCF8F0E0C080AC
:1015BE000000000000000000007F3F1F0F07030126
:1015CE00000000000000000000000000000000000D
:1015DE0000000000000000000000000000000000FD
:1015EE000000000000000000000080C0E0F0F8FCE9
:1015FE00FEFE0000000000000000000000000000E1
:10160E000000000000FFFFFFFFFFFFFFFFFFFFFFD7
:10161E00FFFF0000000080C0C0E06060606060C03E
:10162E00C080000000FFFFFFFFFFFFFFFFFFFFFF77
:10163E00FFFF00FCFEFF07070F1C3870E0C08000A4
:10164E000103FFFCF800000000000103070F1F3F1D
:10165E007F7F0001030F1E38387060606061637F0A
:10166E003E1E0F03010000000000000000000000FD
:10167E00000000000000000000000000000000005C
:10168E00000000000000000000000000000000004C
:10169E00000000000000000000000000000000003C
:1016AE00000000000000000000000000000000002C
:1016BE00000000000000000000000000000000001C
:1016CE00000000000000000000000000000000000C
:1016DE0000000000000000000000000000000000FC
:1016EE0000000000000000000000000000000000EC
:1016FE0000000000000000000000000000000000DC
:10170E0000000000000000000000000000000000CB
:10171E0000000000000000000080C0C0800080C0FB
:10172E00C0F0F0F0F0F0C0C0800080C0C0800000BB
:10173E00000000000000000000000000000000009B
:10174E00000000000000000000000000000000008B
:10175E00000000000000000000000000000000007B
:10176E00000000000000000000000000000000006B
:10177E00000000000000000000000000000000005B
:10178E00000000000000000000000000000000004B
:10179E0000000000000000C6EF7FBFDF6F371B0D9B
:1017AE00860646464606860D1B376FDFBF7FEFC6A1
:1017BE00000000000000000000000000000000001B
:1017CE00000000000000000000000000000000000B
:1017DE0000000000000000000000000000000000FB
:1017EE0000000000000000000000000000000000EB
:1017FE0000000000000000000000000000000000DB
:10180E0000000000000000000000000000E01008D2
:10181E000404040E0E1F1F7FFFC0BF7FC080000E8A
:10182E0020044E5F4E04200E0080C07FBFC0FF7F9D
:10183E001F1F000010B8FCFE7CB8DCFF6F6FFFDCD2
:10184E00B87CFEFCB8100000000000000000000094
:10185E00000000000000000000000000000000007A
:10186E00000000000000000000000000000000006A
:10187E00000000000000000000000000000000005A
:10188E0000000000000000000000000000FF00004B
:10189E0000000000000000040E1F3F7F3E1D3B763F
:1018AE006CECECECECEC6C763B1D3E7F3F1F0E04BB
:1018BE0000000F0F8FDFFFF9EFDFB9F06666F0B9AA
:1018CE00DFEFF9FFDF8F0F0F0000000000000000B8
:1018DE0000000000000000000000000000000000FA
:1018EE0000000000000000000000000000000000EA
:1018FE0000000000000000000000000000000000DA
:10190E00000000000000000000000000207F70209A
:10191E0000000000000000000000000000000000B9
:10192E0000010101010100000000000000000000A4
:10193E0000000000000103070301030FFF0F0F0358
:10194E0001030707030301227C20000000000000B2
:10195E000000000000000000000000000000000079
:10196E000000000000000000000000FFFFFF03FF6A
:10197E00FF0703FFFE0000FFFFFF8080C0FFFF0098
:10198E00000044CEDF9B93B7F7E6000000FFFF0098
:10199E0000007CFE83838383C7C600000001FF0224
:1019AE0001FE010101FE000001E712110909FE000E
:1019BE0000007CC60101010786000000FF02010144
:1019CE0001FE800000000101FF000000000001FF89
:1019DE0000010101FE000000FE11111111118E0017
:1019EE0000000000000000000000000101010001E5
:1019FE0001000001010000000101010100010100D0
:101A0E0000000000010101010100000000010100C1
:101A1E0000000000010101010100000000010100B1
:101A2E00000101000001010000000101010101019E
:101A3E000000000001010101000000010101000091
:101A4E00010101000000010101010100000001017E
:101A5E00010000010101000000010101010100006F
:101A6E000000000000000000000000000000000068
:101A7E000000000000000000000000000000000058
:101A8E000000000000000000000000000000000048
:101A9E000000000000000000000000000000000038
:101AAE000000000000000000000000000000000028
:101ABE000000000000000000000000000000000018
:101ACE000000000000000000000000000000000008
:101ADE0000000000000000000000000000000000F8
:051AEE000000000000F3
:0C27C0007F037E3F7D7CDDFEDEFCDFFA47
:0127CC0022EA
:0C27CD007F177E717DF8DDFEDEFCDFFA78
:0127D90022DD
:0D27B200007FE17E6A7DCBDDFEDEFCDFFAFC
:0127BF0022F7
:101AF300E4F529F52BFFF52C7B017A007900F52A13
:101B0300E52AC3942B7480948040030220D4C374C9
:101B13002A952AF52BC31375F006A4F52CE4F529B1
:101B2300E529C394087480948040030220CFE52BF9
:101B33001375F080E5294003021E00A42415F582E5
:101B4300E5F03408F583E582252CF582E43583F549
:101B530083E0FE25E05402FF75F080E529A42414F8
:101B6300F582E5F03408F583E582252CF582E4352A
:101B730083F583E03333335408420775F080E52956
:101B8300A42413F582E5F03408F583E582252CF5CA
:101B930082E43583F583E0C43354204207EEC43333
:101BA3003354804207EF122465740129F9E43AFAA9
:101BB30075F080E529A42414F582E5F03408F58353
:101BC300E582252CF582E43583F583E0FE5402FF9C
:101BD30075F080E529A42413F582E5F03408F58334
:101BE300E582252CF582E43583F583E025E025E0C5
:101BF3005408420775F080E529A42415F582E5F021
:101C03003408F583E582252CF582E43583F583E0FA
:101C130033333354204207EEC43354804207EF1268
:101C23002465740129F9E43AFA75F080E529A424BE
:101C330013F582E5F03408F583E582252CF582E47B
:101C43003583F583E0FEC3135402FF75F080E52965
:101C5300A42415F582E5F03408F583E582252CF5F7
:101C630082E43583F583E05408420775F080E52963
:101C7300A42414F582E5F03408F583E582252CF5D8
:101C830082E43583F583E025E025E054204207EE26
:101C9300C454804207EF122465740129F9E43AFA27
:101CA30075F080E529A42415F582E5F03408F58361
:101CB300E582252CF582E43583F583E0FE131313C7
:101CC3005402FF75F080E529A42414F582E5F0346D
:101CD30008F583E582252CF582E43583F583E0C39B
:101CE300135408420775F080E529A42413F582E50F
:101CF300F03408F583E582252CF582E43583F583FA
:101D0300E025E054204207EE25E025E05480420719
:101D1300EF122465740129F9E43AFA75F080E52994
:101D2300A42414F582E5F03408F583E582252CF527
:101D330082E43583F583E0FEC45402FF75F080E549
:101D430029A42413F582E5F03408F583E582252CD4
:101D5300F582E43583F583E013135408420775F0E5
:101D630080E529A42415F582E5F03408F583E5829E
:101D7300252CF582E43583F583E0C3135420420711
:101D8300EE25E054804207EF122465740129F9E43B
:101D93003AFA75F080E529A42413F582E5F03408B6
:101DA300F583E582252CF582E43583F583E0FEC4D3
:101DB300135402FF75F080E529A42415F582E5F09C
:101DC3003408F583E582252CF582E43583F583E039
:101DD300C45408420775F080E529A42414F582E56C
:101DE300F03408F583E582252CF582E43583F58309
:101DF300E0131354204207EE54800220BDA42410A4
:101E0300F582E5F03408F583E582252CF582E43587
:101E130083F583E0FE5401FF75F080E529A42411C6
:101E2300F582E5F03408F583E582252CF582E43567
:101E330083F583E025E025E05404420775F080E54F
:101E430029A42412F582E5F03408F583E582252CD4
:101E5300F582E43583F583E0C454104207EEC433BE
:101E630054404207EF122465740129F9E43AFA75E4
:101E7300F080E529A42411F582E5F03408F583E523
:101E830082252CF582E43583F583E0FEC3135401E8
:101E9300FF75F080E529A42412F582E5F03408F5F6
:101EA30083E582252CF582E43583F583E025E05430
:101EB30004420775F080E529A42410F582E5F03487
:101EC30008F583E582252CF582E43583F583E02547
:101ED300E025E054104207EEC454404207EF1224B9
:101EE30065740129F9E43AFA75F080E529A424120E
:101EF300F582E5F03408F583E582252CF582E43597
:101F030083F583E0FE13135401FF75F080E529A4E4
:101F13002410F582E5F03408F583E582252CF5825B
:101F2300E43583F583E0C3135404420775F080E579
:101F330029A42411F582E5F03408F583E582252CE4
:101F4300F582E43583F583E025E054104207EE3350
:101F5300333354404207EF122465740129F9E43AFC
:101F6300FA75F080E529A42410F582E5F03408F52C
:101F730083E582252CF582E43583F583E0FEC454A2
:101F830001FF75F080E529A42411F582E5F03408FA
:101F9300F583E582252CF582E43583F583E013137D
:101FA3005404420775F080E529A42412F582E5F074
:101FB3003408F583E582252CF582E43583F583E047
:101FC30054104207EE25E054404207EF1224657493
:101FD3000129F9E43AFA75F080E529A42411F58280
:101FE300E5F03408F583E582252CF582E43583F5A5
:101FF30083E0FEC4135401FF75F080E529A4241285
:10200300F582E5F03408F583E582252CF582E43585
:1020130083F583E01313135404420775F080E52915
:10202300A42410F582E5F03408F583E582252CF528
:1020330082E43583F583E0131354104207EE5440D2
:102043004207EF122465740129F9E43AFA75F08026
:10205300E529A42412F582E5F03408F583E5822509
:102063002CF582E43583F583E0FEC413135401FF9A
:1020730075F080E529A42410F582E5F03408F58392
:10208300E582252CF582E43583F583E0C4135404FB
:10209300420775F080E529A42411F582E5F03408A0
:1020A300F583E582252CF582E43583F583E013136C
:1020B3001354104207EEC31354404207EF12246532
:1020C300740129F9E43AFA0529021B23052A021BA4
:0120D3000309
:0120D40022E9
:0625BA00EF2430FBE4FFFA
:0625C0008F298D2A8B2BF0
:1025C600E4F9E9C3940574809480504C75F005E5F0
:1025D6002BA429F582E435F0F583E58224EEF58215
:1025E600E5833412F583E493FDE52A75F008A4FF2C
:1025F600E97A002FFFEA35F0FE75F080E529A4247C
:1026060010F582E5F03408F583E5822FF582E5833F
:082616003EF583EDF00980AAF6
:01261E002299
:102750008F1B8B1C8A1D891EAC05AB1CAA1DA91ED4
:1027600012244C6018AD040C051EE51E7002051DF8
:0E27700014F912244CFBAF1B1225C080DD2291
:0622E5008F2D8D2E8B2FC2
:1022EB00E4F9E9C394087480948040030223A3E5C6
:1022FB002F24E0FFE434FFFEEFC4F8540FC868FF4F
:10230B00EEC454F048FEE9FD7C002FFFEC3EFE745A
:10231B008E2FF582740D3EF583E493FBE52E75F05D
:10232B0008A42DFDEC35F0FC75F000E52DA4241070
:10233B00F582E5F03408F583252DF583E5822DF53F
:10234B0082E5833CF583EBF0E52F24E0FFE434FFDB
:10235B00FEEFC4F8540FC868FFEEC454F048FEE912
:10236B007A002FFFEA3EFE74962FF582740D3EF530
:10237B0083E493FF75F000E52DA42490F582E5F03E
:10238B003408F583252DF583E5822DF582E5833C15
:08239B00F583EFF0090222EDC9
:0123A3002217
:102721008F168D178B188A19891AAB18AA19A91A2D
:1027310012244C6019AD170517051AE51A70020528
:0F2741001914F912244CFBAF161222E580DC228A
:062217008F308D318B3287
:10221D00E4F9E9C3940C7480948040030222E475C0
:10222D00F024E532A429F582E435F0F583E5822426
:10223D008EF582E58334FBF583E493FFE9FDE5310B
:10224D002DFDE433FC75F080E530A42410F582E516
:10225D00F03408F583E5822DF582E5833CF583EFB7
:10226D00F075F024E532A429F582E435F0F583E527
:10227D0082249AF582E58334FBF583E493FF75F0B0
:10228D0080E530A42490F582E5F03408F583E582ED
:10229D002DF582E5833CF583EFF075F024E532A44E
:1022AD0029F582E435F0F583E58224A6F582E583F0
:1022BD0034FBF583E493FF75F080E530A42410F52D
:1022CD0082E5F03409F583E5822DF582E5833CF551
:0722DD0083EFF00902221F4C
:0122E40022D7
:1026F0008F218B228A238924AE05AB22AA23A92409
:1027000012244C601BAD060524E524700205231439
:10271000F912244CFBAF21122217740C2EFE80DA22
:012720002296
:0A24CC008F088D098B0A8A0B890C1A
:1024D600E4F50DF50EF50DC3E50D940474809480B6
:1024E600505AE4F50EC3E50E94207480948050484B
:1024F600AB0AAA0BA90C12244CFDE508250DFFE436
:1025060033FEEF7807C333CE33CED8F92410F582E5
:1025160074083EF583E509250EFFE433FEE5822FB8
:10252600F582E5833EF583EDF07401250CF50CE4A8
:0C253600350BF50B050E80AD050D809BEC
:012542002276
:0A2543008F0F8D108B118A1289137F
:10254D00E4F514F515F514C3E51494027480948024
:10255D00505AE4F515C3E5159410748094805048D5
:10256D00AB11AA12A91312244CFDE50F2514FFE49B
:10257D0033FEEF7807C333CE33CED8F92410F5826E
:10258D0074083EF583E5102515FFE433FEE5822F33
:10259D00F582E5833EF583EDF074012513F513E423
:0C25AD003512F512051580AD0514809B59
:0125B90022FF
:10266F00E4FFEFC39408748094805038E4FEEEC307
:10267F00948074809480502912244CFD75F080EF63
:10268F00A42410F582E5F03408F583E5822EF58257
:10269F00E43583F583EDF0740129F9E43AFA0E80FD
:0426AF00CD0F80BE0D
:0126B3002204
:1026B400E4FFEFC3940874809480502DE4FEEEC3CD
:1026C400948074809480501E75F080EFA42410F5DB
:1026D40082E5F03408F583E5822EF582E43583F54E
:0B26E40083E4F00E80D80F80C9D20004
:0126EF0022C8
:03000B000223A429
:1023A400C0E0C083C082C0D075D000C001C002C0EC
:0523B40003C006C00794
:1023B9007F30E528702E7525017526007527007573
:1023C900282BD2A2C2A400D2A400C2A400D2A40085
:1023D900C2A2C2A400D2A400C2A400D2A400C2A472
:1023E90000D2A400AE071FEED394007480948040FD
:1023F9001DAB250527E527AA267002052614F91223
:10240900244CF5CFE5CD30E7FB75CDC080D6C2A40D
:1024190000D2A40090FEF7E4F0A3F0D2A600C2A671
:1024290000900C10E0FF90FEF7E4F0A3EFF0152800
:10243900D007D006D003D002D001D0D0D082D0832B
:03244900D0E032AE
:10277E00759403E4F593F592F591F596F595F5B20A
:10278E00F5B1F5B4F5B3F5CAF5C9F5CCF5CBF5E26F
:03279E00F5E12240
:0427F10075A20422A7
:10261F0043BA8090FEECE4F090FEE87460F0A3748F
:10262F0070F090FEEC7411F0900C10E0FF7E0090B3
:10263F00FEF5EEF0A3EFF0A3EEF0A3EFF090FEF0B7
:10264F00E4F0A37402F0A3E4F0A374C8F090FEB515
:10265F007405F090FEFD7480F090FEE07401F0229E
:0700030075CEF075CDC0229F
:1027A100538E7F5389F0758A4B758CFDC28DC28C17
:0127B1002205
:0B27E6008FCFE5CD30E7FB75CDC022A2
:1020D500900C107401F0D281C2801227F112277E74
:1020E5001227A112000312261F1227CDD2A9D2AFA3
:1020F5001226B47BFF7A1679F312266F121AF3D2E1
:102105008CC2811227CDD28020B42A1227C020B4D8
:1021150021900C10E0240AF0E0C39464748094804C
:1021250040037464F0900C10E0FF90FEF7E4F0A318
:10213500EFF030B4FD20B5231227C020B51A900C5E
:1021450010E024F6F0E07003740AF0900C10E0FF44
:1021550090FEF7E4F0A3EFF030B5FD900C10E0FF32
:102165007E007C037DE8122477EF2430FBE4FDFF3D
:102175001225C0900C10E0FF7E007C037DE8122440
:10218500777E007F64CFCDCFCECCCE1224777D0174
:102195001225BA900C10E0FF7E007C037DE8122426
:1021A500777E007F64CFCDCFCECCCE1224777E0054
:1021B5007F0ACFCDCFCECCCE1224777D021225BAA1
:1021C500900C10E0FF7E007C037DE81224777E00F2
:1021D5007F64CFCDCFCECCCE1224777E007F0ACFC1
:1021E500CDCFCECCCE122477ED2430FB7D03E4FF9A
:1021F5001225C0121AF31227CD900C10E004F0E05E
:10220500D394C874809480500302210D7401F002A8
:02221500210D99
:030000000227DAFA
:0C27DA00787FE4F6D8FD7581320220D52E
:10244C00BB010689828A83E0225002E722BBFE028E
:09245C00E32289828A83E49322C1
:10246500BB010689828A83F0225002F722BBFE0156
:02247500F32250
:10247700BC000BBE0029EF8DF084FFADF022E4CC49
:10248700F875F008EF2FFFEE33FEEC33FCEE9DEC12
:10249700984005FCEE9DFE0FD5F0E9E4CEFD22ED58
:1024A700F8F5F0EE8420D21CFEADF075F008EF2FA2
:1024B700FFED33FD4007985006D5F0F222C398FD93
:0524C7000FD5F0EA2230
:00000001FF
